S00A000031352E73726563B4
S113000045C0000060C00000D1C200005CC0000018
S11300105AC0000058C0000056C0000054C0000080
S113002052C0000050C000004EC000004CC0000090
S11300304AC0000048C0000046C0000044C00000A0
S113004042C0000040C000003EC000003CC00000B0
S11300503AC0000038C0000036C0000034C00000C0
S113006032C0000030C000002EC000002CC00000D0
S11300702AC0000028C0000026C0000024C00000E0
S113008022C0000020C000001EC0000011241FBEBA
S1130090CFEFD0E1DEBFCDBF11E0A0E0B1E0ECE4F2
S11300A0F0E100E00BBF02C007900D92A232B1074D
S11300B0D9F721E0A2E2B1E001C01D92AA32B20751
S11300C0E1F7B4D1C1C79CCF1ABA85B38E7F85BB83
S11300D085B3826085BB85B3846085BB85E08A95E2
S11300E0F1F7000089B395E09A95F1F7000095B314
S11300F09B7F95BB9FEF9ABB95E09A95F1F7000023
S11301000895882314F481E0089580E0089595B358
S11301109E7F95BB95B39D7F95BB95B3946095BB2E
S11301208BBB85E08A95F1F7000085B38B7F85BB97
S113013085E08A95F1F700000895CF93C82F04C095
S113014085E08A95F1F70000BFDFDBDF8111F8CF8E
S113015085B38E7F85BB85B38D7F85BB85B3846076
S113016085BBCBBB85E08A95F1F7000085B38B7F17
S113017085BB85E08A95F1F70000CF91089570E082
S11301809B0140E4849F200D311D1124C901806826
S1130190D4CF08952FEF81EE94E021508040904019
S11301A0E1F700C0000088E3B2DF8FE39CE9019728
S11301B0F1F700C0000088E3AADF8FE193E0019724
S11301C0F1F700C0000088E3A2DF8FE193E001971C
S11301D0F1F700C0000088E3B0DF8CE0AEDF81E01F
S11301E0ACCF0895CF93C82F04C085E08A95F1F76A
S11301F000006ADF86DF8111F8CF85B3816085BB9B
S113020085B38D7F85BB85B3846085BBCBBB85E01F
S11302108A95F1F7000085B38B7F85BB85E08A95CD
S1130220F1F70000CF910895CF93DF93EC0102C062
S11302302196D8DF88818111FBCFDF91CF9108957A
S113024081B3816081BB82B38E7F82BB2FEF89EF44
S113025090E0215080409040E1F700C0000082B35C
S1130260816082BB089581B38E7F81BB8099FECF6C
S1130270809BFECF8099FECF089520E030E019C026
S1130280809BFECF80EA8A95F1F7809B09C080911C
S1130290240190E0880F991F81608093240105C098
S11302A080912401880F809324018099FECF2F5FD1
S11302B03F4F2830310524F3809124010895CF92D3
S11302C0DF92EF92FF92CF93DF93BADFCCDFD5DFDB
S11302D080932801D2DF80932501CFDF809327010B
S11302E0CCDF80932901C9DF8093260190912801F6
S11302F02091250130E0290F311DC0912701D0E064
S11303002C0F3D1F6091290170E0260F371F90E0EC
S113031028173907C9F4072E000C880B990B7BD2D8
S113032020E030E040E251E4DBD16B017C01BE010E
S1130330DD0F880B990B6FD2A70196016DD1562F53
S1130340472F382F292F04C050E040E030E020E050
S1130350652F742F832F922FDF91CF91FF90EF9011
S1130360DF90CF9008956CDF7EDF87DF80932801D4
S113037084DF8093250181DF809327017EDF8093D2
S113038029017BDF809326014091280150E0909160
S113039025019A01290F311D90912701290F311D43
S11303A090912901290F311D90E02817390711F088
S11303B040E050E0CA01089580E886B986B18760BC
S11303C086B9089590E497B997B1892B87B986B116
S11303D0806486B93699FECF84B195B1089582E8D8
S11303E08FBD8BE18EBD87E893E197BD86BD84EF19
S11303F091E09BBD8ABD1DBC1CBC08958130910554
S113040029F48AEF90E09BBD8ABD06C0892B21F4B4
S113041084EF91E09BBD8ABD2FEF81EE94E02150E3
S113042080409040E1F700C000000895CF93DF932F
S1130430CDB7DEB760970FB6F894DEBF0FBECDBF61
S11304408FEF8ABB84BB87BB11BA12B810926100CC
S1130450A1DEC5DFEAE6F0E080818C60808389B7A5
S1130460826089BF78942BDF6B017C012FEF4BE70F
S113047052E9215040405040E1F700C0000073DFD2
S1130480182F092F8FEF9BE722E9815090402040DD
S1130490E1F700C0000060E081E071DE20E030E0C0
S11304A040E251E4C701B60146D282D10F931F93B3
S11304B0CB016AE070E0C6D29F938F93C701B60167
S11304C077D17F936F9380E091E09F938F938E0118
S11304D00F5F1F4F1F930F93DCD2C801A5DE0FB629
S11304E0F894DEBF0FBECDBF20E030E040EF51E412
S11304F0C701B6011CD288231CF081E083B90EC069
S113050020E030E040E251E4C701B60110D2882374
S11305101CF082E083B902C084E083B94DDF80E03F
S113052051DF2EE1AC01249FC001259F900D1124C1
S1130530992314F481509C4FB92EBB0CBB08092F8E
S1130540059505951B2D60E080E019DEBF920F93A1
S113055080E191E09F938F93CE0101965C019F937C
S11305608F9397D2C50160DEB801110F880B990BE8
S113057052D19B01AC010F900F900F900F900F90F0
S11305800F90C701B601D3D1882344F081E090E0F5
S1130590909323018093220131DF65CF10922301D0
S11305A01092220180E090E029DF5DCF1F920F922C
S11305B00FB60F9211240BB60F922F933F934F93C4
S11305C05F936F937F938F939F93AF93BF93EF93B7
S11305D0FF9381E090E02091220130912301232BAD
S11305E011F080E090E0909323018093220106DFD4
S11305F0FF91EF91BF91AF919F918F917F916F91F7
S11306005F914F913F912F910F900BBE0F900FBEB2
S11306100F901F9018955058BB27AA270ED04DC194
S11306203ED130F043D120F031F49F3F11F41EF459
S113063033C10EF4E095E7FB29C1E92F4FD180F3D4
S1130640BA17620773078407950718F071F49EF5CB
S113065067C10EF4E0950B2EBA2FA02D0B01B90142
S113066090010C01CA01A0011124FF27591B99F024
S1130670593F50F4503E68F11A16F040A22F232F30
S1130680342F4427585FF3CF469537952795A79580
S1130690F0405395C9F77EF41F16BA0B620B730B27
S11306A0840BBAF09150A1F0FF0FBB1F661F771F98
S11306B0881FC2F70EC0BA0F621F731F841F48F44D
S11306C0879577956795B795F7959E3F08F0B3CFD3
S11306D09395880F08F09927EE0F979587950895BD
S11306E00CD0EBC0E3D040F0DAD030F021F45F3F1F
S11306F019F0CCC0511115C1CFC0F0D098F3992393
S1130700C9F35523B1F3951B550BBB27AA276217D1
S11307107307840738F09F5F5F4F220F331F441F16
S1130720AA1FA9F333D00E2E3AF0E0E830D091504E
S11307305040E695001CCAF729D0FE2F27D0660F3B
S1130740771F881FBB1F261737074807AB07B0E87A
S113075009F0BB0B802DBF01FF2793585F4F2AF090
S11307609E3F510568F092C0DCC05F3FECF3983EB9
S1130770DCF3869577956795B795F7959F5FC9F7ED
S1130780880F911D9695879597F90895E1E0660F76
S1130790771F881FBB1F621773078407BA0720F0EF
S11307A0621B730B840BBA0BEE1F88F7E095089558
S11307B004D06894B111B5C0089598D088F09F57BB
S11307C090F0B92F9927B751A0F0D1F0660F771F99
S11307D0881F991F1AF0BA95C9F712C0B13081F079
S11307E09FD0B1E008959CC0672F782F8827B85F09
S11307F039F0B93FCCF3869577956795B395D9F7DA
S11308003EF490958095709561957F4F8F4F9F4FE3
S11308100895E89409C097FB3EF4909580957095EF
S113082061957F4F8F4F9F4F9923A9F0F92F96E938
S1130830BB279395F695879577956795B795F111AD
S1130840F8CFFAF4BB0F11F460FF1BC06F5F7F4F4A
S11308508F4F9F4F16C0882311F096E911C077235C
S113086021F09EE8872F762F05C0662371F096E865
S1130870862F70E060E02AF09A95660F771F881F34
S1130880DAF7880F9695879597F9089597F99F67F2
S113089080E870E060E008959FEF80EC0895002404
S11308A00A941616170618060906089500240A94D1
S11308B012161306140605060895092E0394000C57
S11308C011F4882352F0BB0F40F4BF2B11F460FFE6
S11308D004C06F5F7F4F8F4F9F4F089557FD90580F
S11308E0440F551F59F05F3F71F04795880F97FBF0
S11308F0991F61F09F3F79F08795089512161306AA
S11309001406551FF2CF4695F1DF08C016161706D8
S11309101806991FF1CF869571056105089408950D
S1130920E894BB2766277727CB0197F9089566D00B
S113093008F48FEF08950BD0C0CFB1DF28F0B6DFF5
S113094018F0952309F0A2CFA7CF1124EACFC6DF70
S1130950A0F3959FD1F3950F50E0551F629FF001CE
S1130960729FBB27F00DB11D639FAA27F00DB11D27
S1130970AA1F649F6627B00DA11D661F829F2227B0
S1130980B00DA11D621F739FB00DA11D621F839F37
S1130990A00D611D221F749F3327A00D611D231F0D
S11309A0849F600D211D822F762F6A2F11249F575B
S11309B050408AF0E1F088234AF0EE0FFF1FBB1F7E
S11309C0661F771F881F91505040A9F79E3F51051D
S11309D070F05CCFA6CF5F3FECF3983EDCF38695D6
S11309E077956795B795F795E7959F5FC1F7FE2BC8
S11309F0880F911D9695879597F90895990F00088A
S1130A00550FAA0BE0E8FEEF16161706E807F907DC
S1130A10C0F012161306E407F50798F0621B730B77
S1130A20840B950B39F40A2661F0232B242B252BF8
S1130A3021F408950A2609F4A140A6958FEF811D9B
S1130A40811D089597FB072E16F4009406D077FDB8
S1130A5008D00BD007FC05D03EF4909581959F4FAC
S1130A600895709561957F4F0895AA1BBB1B51E1B2
S1130A7007C0AA1FBB1FA617B70710F0A61BB70B0A
S1130A80881F991F5A95A9F780959095BC01CD01AF
S1130A9008950F931F93CF93DF93CDB7DEB72E97AF
S1130AA00FB6F894DEBF0FBECDBF0D891E8986E058
S1130AB08C831A8309838FEF9FE79E838D83AE0116
S1130AC0475E5F4F6F89788DCE01019610D0EF811C
S1130AD0F885E00FF11F10822E960FB6F894DEBF52
S1130AE00FBECDBFDF91CF911F910F9108952F922B
S1130AF03F924F925F926F927F928F929F92AF92AA
S1130B00BF92CF92DF92EF92FF920F931F93CF93F6
S1130B10DF93CDB7DEB72B970FB6F894DEBF0FBEC9
S1130B20CDBF6C017B018A01FC011782168283818F
S1130B3081FFBFC1CE0101963C01F6019381F7010B
S1130B4093FD859193FF81917F01882309F4ADC1C1
S1130B50853239F493FD859193FF81917F0185322C
S1130B6021F4B60190E0D6D1E8CF912C212C312C80
S1130B70FFE1F315D8F08B3279F038F4803279F054
S1130B808332A1F4232D20611DC08D3261F08033A6
S1130B9069F4232D216016C0832D8260382EE32D45
S1130BA0E4603E2E2AC0F32DF8601DC037FC2DC032
S1130BB020ED280F2A3040F08E32B9F436FC75C18E
S1130BC0232D2064322E19C036FE06C08AE0989E7A
S1130BD0200D1124922E11C0EAE02E9E200D112426
S1130BE0222EF32DF0623F2E08C08C3621F4832D83
S1130BF08068382E02C0883641F4F70193FD859150
S1130C0093FF81917F018111B3CF982F9F7D9554DC
S1130C10933028F40C5F1F4F9FE399830DC08336F4
S1130C2031F0833771F0833509F055C020C0F801E5
S1130C30808189830E5F1F4F88248394912C5301F4
S1130C4012C02801F2E04F0E511CF801A080B180BF
S1130C5036FE03C0692D70E002C06FEF7FEFC5015F
S1130C604ED14C018201F32DFF773F2E15C0280190
S1130C7022E0420E511CF801A080B18036FE03C070
S1130C80692D70E002C06FEF7FEFC5012DD14C01DB
S1130C90F32DF0683F2E820133FC19C0822D90E0C1
S1130CA088169906A0F4B60180E290E033D12A9424
S1130CB0F5CFF50137FC859137FE81915F01B601CF
S1130CC090E028D121102A9421E0821A91088114FD
S1130CD0910479F7E1C0843611F0893639F5F801C9
S1130CE037FE07C060817181828193810C5F1F4F41
S1130CF008C060817181072E000C880B990B0E5F70
S1130D001F4FF32DFF763F2E97FF09C090958095D6
S1130D10709561957F4F8F4F9F4FF0683F2E2AE06B
S1130D2030E0A30133D1882E861844C0853731F4CE
S1130D30232D2F7EB22E2AE030E025C0932D997FFB
S1130D40B92E8F36C1F018F4883579F0AEC08037EB
S1130D5019F0883721F0A9C0E92FE061BE2EB4FE56
S1130D600DC0FB2DF460BF2E09C034FE0AC0292F2C
S1130D702660B22E06C028E030E005C020E130E055
S1130D8002C020E132E0F801B7FE07C06081718142
S1130D90828193810C5F1F4F06C06081718180E066
S1130DA090E00E5F1F4FA301F1D0882E8618FB2D13
S1130DB0FF773F2E36FE0DC0232D2E7FA22E8914E1
S1130DC058F434FE0BC032FC09C0832D8E7EA82E4D
S1130DD005C0B82CA32C03C0B82C01C0B92CA4FEA8
S1130DE00FC0FE01E80DF11D8081803321F49A2D9E
S1130DF0997EA92E09C0A2FE06C0B394B39404C080
S1130E008A2D867809F0B394A3FC10C0A0FE06C016
S1130E10B21480F4280C922C9B180DC0B21458F410
S1130E20B60180E290E076D0B394F8CFB21418F40F
S1130E302B1802C0982C212CA4FE0FC0B60180E30D
S1130E4090E068D0A2FE16C0A1FC03C088E790E041
S1130E5002C088E590E0B6010CC08A2D867851F076
S1130E60A1FE02C08BE201C080E2A7FC8DE2B601C4
S1130E7090E050D0891430F4B60180E390E04AD079
S1130E809A94F8CF8A94F301E80DF11D8081B6019C
S1130E9090E040D08110F6CF222009F44ECEB60166
S1130EA080E290E037D02A94F7CFF60186819781CB
S1130EB002C08FEF9FEF2B960FB6F894DEBF0FBEE4
S1130EC0CDBFDF91CF911F910F91FF90EF90DF90F5
S1130ED0CF90BF90AF909F908F907F906F905F90D6
S1130EE04F903F902F900895FC0105906150704001
S1130EF00110D8F7809590958E0F9F1F0895FC01DF
S1130F006150704001900110D8F7809590958E0F34
S1130F109F1F08950F931F93CF93DF93FB012381AA
S1130F2021FD03C08FEF9FEF2CC022FF16C0468126
S1130F305781248135814217530744F4A081B1813C
S1130F409D012F5F3F4F318320838C93268137810E
S1130F502F5F3F4F3783268314C08B01EC01FB01C5
S1130F600084F185E02D0995892BE1F6D8011696C8
S1130F708D919C911797019617969C938E93169733
S1130F80CE01DF91CF911F910F910895FA01AA2705
S1130F90283051F1203181F1E8946F936E7F6E5FB8
S1130FA07F4F8F4F9F4FAF4FB1E03ED0B4E03CD066
S1130FB0670F781F891F9A1FA11D680F791F8A1F49
S1130FC0911DA11D6A0F711D811D911DA11D20D0B0
S1130FD009F468943F912AE0269F11243019305D6A
S1130FE03193DEF6CF010895462F4770405D41935B
S1130FF0B3E00FD0C9F7F6CF462F4F70405D4A33A8
S113100018F0495D31FD4052419302D0A9F7EACF6F
S1131010B4E0A6959795879577956795BA95C9F79E
S113102000976105710508959B01AC010A2E069491
S11310305795479537952795BA95C9F7620F731F4A
S10F1040841F951FA01D0895F894FFCF95
S113104C25642E2564274320202564252520200093
S113105C7365742074656D70203A202564274320D1
S105106C20005E
S9030000FC
