S00D0000736572766F2E73726563E8
S113000045C0000053C0000051C000004FC00000B4
S11300104DC000004BC0000049C0000047C00000B4
S113002045C0000043C0000041C000003FC00000C4
S11300303DC000003BC0000039C0000037C00000D4
S113004035C0000033C000005CC000002FC00000B9
S11300502DC000002BC0000029C0000027C00000F4
S113006025C0000023C0000021C000001FC0000004
S11300701DC000001BC0000019C0000017C0000014
S113008015C0000013C0000011C0000011241FBEE1
S1130090CFEFD0E1DEBFCDBF21E0A0E0B1E001C0F1
S11300A01D92A230B207E1F709D049C0A9CF9093BD
S11300B0900089B988E98AB9789408958FEF81BB53
S11300C087E690E0F4DF8091000190910101892B93
S11300D0D1F311C021E030E0082E02C0220F331FFB
S11300E00A94E2F722BBEFE3FCE93197F1F700C091
S11300F00000019602C080E090E08430910554F342
S1130100E2CF1F920F920FB60F9211248F939F93F9
S11301108CB1803329F4109201011092000108C0BF
S1130120813331F481E090E09093010180930001E8
S11301309F918F910F900FBE0F901F901895F89478
S1050140FFCFEB
S9030000FC
